{
  "contractName": "Ethify",
  "abi": [
    {
      "inputs": [],
      "name": "ethify",
      "outputs": [],
      "stateMutability": "nonpayable",
      "type": "function"
    },
    {
      "inputs": [],
      "name": "getContractProperties",
      "outputs": [
        {
          "internalType": "address",
          "name": "",
          "type": "address"
        },
        {
          "internalType": "address[]",
          "name": "",
          "type": "address[]"
        }
      ],
      "stateMutability": "view",
      "type": "function"
    }
  ],
  "bytecode": "0x608060405234801561001057600080fd5b506102cc806100206000396000f3fe608060405234801561001057600080fd5b50600436106100365760003560e01c80636e9a215e1461003b578063d842327e1461005a575b600080fd5b610043610064565b604051610051929190610266565b60405180910390f35b610062610122565b005b600060606000800160009054906101000a900473ffffffffffffffffffffffffffffffffffffffff1660006001018080548060200260200160405190810160405280929190818152602001828054801561011357602002820191906000526020600020905b8160009054906101000a900473ffffffffffffffffffffffffffffffffffffffff1673ffffffffffffffffffffffffffffffffffffffff16815260200190600101908083116100c9575b50505050509050915091509091565b336000800160006101000a81548173ffffffffffffffffffffffffffffffffffffffff021916908373ffffffffffffffffffffffffffffffffffffffff160217905550565b600073ffffffffffffffffffffffffffffffffffffffff82169050919050565b600061019282610167565b9050919050565b6101a281610187565b82525050565b600081519050919050565b600082825260208201905092915050565b6000819050602082019050919050565b6101dd81610187565b82525050565b60006101ef83836101d4565b60208301905092915050565b6000602082019050919050565b6000610213826101a8565b61021d81856101b3565b9350610228836101c4565b8060005b8381101561025957815161024088826101e3565b975061024b836101fb565b92505060018101905061022c565b5085935050505092915050565b600060408201905061027b6000830185610199565b818103602083015261028d8184610208565b9050939250505056fea264697066735822122020ec5a12cafd8bbf493f5bea0ac782d7dad2a5e900b793cd2117ccda0cd8ea7664736f6c63430008100033",
  "immutableReferences": {},
  "source": "// SPDX-License-Identifier: MIT\r\npragma solidity  ^0.8.16;\r\n\r\ncontract Ethify{\r\n\r\n    struct ContractProperties{\r\n        address EthifyOwner;\r\n        address[] registeredUserAdderss;\r\n    }\r\n\r\n    ContractProperties contractProperties;\r\n\r\n    function ethify() public{\r\n         \r\n         contractProperties.EthifyOwner = msg.sender;\r\n    }\r\n\r\n    function getContractProperties() public view returns(address, address[] memory){\r\n\r\n        return (contractProperties.EthifyOwner, contractProperties.registeredUserAdderss);\r\n    }\r\n}",
  "sourcePath": "C:\\Users\\dvipa\\OneDrive\\Desktop\\Dapp_Project\\contracts\\Ethify.sol",
  "compiler": {
    "name": "solc",
    "version": "0.8.16+commit.07a7930e.Emscripten.clang"
  },
  "schemaVersion": "3.4.9",
  "updatedAt": "2022-08-23T16:10:59.839Z",
  "devdoc": {
    "kind": "dev",
    "methods": {},
    "version": 1
  },
  "userdoc": {
    "kind": "user",
    "methods": {},
    "version": 1
  }
}