{
  "contractName": "Ethify",
  "abi": [
    {
      "constant": false,
      "inputs": [],
      "name": "ethify",
      "outputs": [],
      "payable": false,
      "stateMutability": "nonpayable",
      "type": "function"
    },
    {
      "constant": true,
      "inputs": [],
      "name": "getContractProperties",
      "outputs": [
        {
          "internalType": "address",
          "name": "",
          "type": "address"
        },
        {
          "internalType": "address[]",
          "name": "",
          "type": "address[]"
        }
      ],
      "payable": false,
      "stateMutability": "view",
      "type": "function"
    }
  ],
  "bytecode": "0x608060405234801561001057600080fd5b5061020f806100206000396000f3fe608060405234801561001057600080fd5b50600436106100365760003560e01c80636e9a215e1461003b578063d842327e146100cd575b600080fd5b6100436100d7565b604051808373ffffffffffffffffffffffffffffffffffffffff1673ffffffffffffffffffffffffffffffffffffffff16815260200180602001828103825283818151815260200191508051906020019060200280838360005b838110156100b857808201518184015260208101905061009d565b50505050905001935050505060405180910390f35b6100d5610195565b005b600060606000800160009054906101000a900473ffffffffffffffffffffffffffffffffffffffff1660006001018080548060200260200160405190810160405280929190818152602001828054801561018657602002820191906000526020600020905b8160009054906101000a900473ffffffffffffffffffffffffffffffffffffffff1673ffffffffffffffffffffffffffffffffffffffff168152602001906001019080831161013c575b50505050509050915091509091565b336000800160006101000a81548173ffffffffffffffffffffffffffffffffffffffff021916908373ffffffffffffffffffffffffffffffffffffffff16021790555056fea265627a7a72315820d38a680713d817686efe5cd523f48a032c55cfdb99829e07d734ae2e86a66f6564736f6c63430005100032",
  "source": "// SPDX-License-Identifier: MIT\r\n\r\npragma solidity ^ 0.5.16;\r\n\r\ncontract Ethify{\r\n\r\n    struct ContractProperties{\r\n        address EthifyOwner;\r\n        address[] registeredUserAdderss;\r\n    }\r\n\r\n    ContractProperties contractProperties;\r\n\r\n    function ethify() public{\r\n         \r\n         contractProperties.EthifyOwner = msg.sender;\r\n    }\r\n\r\n    function getContractProperties() public view returns(address, address[] memory){\r\n\r\n        return (contractProperties.EthifyOwner, contractProperties.registeredUserAdderss);\r\n    }\r\n}",
  "sourcePath": "C:\\Users\\dvipa\\OneDrive\\Desktop\\Dapp_Project\\contracts\\Ethify.sol",
  "compiler": {
    "name": "solc",
    "version": "0.5.16+commit.9c3226ce.Emscripten.clang"
  },
  "schemaVersion": "3.4.9",
  "updatedAt": "2022-08-23T09:58:23.905Z",
  "devdoc": {
    "methods": {}
  },
  "userdoc": {
    "methods": {}
  }
}