{
  "contractName": "Ethify",
  "abi": [
    {
      "inputs": [],
      "name": "ethify",
      "outputs": [],
      "stateMutability": "nonpayable",
      "type": "function"
    },
    {
      "inputs": [],
      "name": "checkUserRegistration",
      "outputs": [
        {
          "internalType": "bool",
          "name": "",
          "type": "bool"
        }
      ],
      "stateMutability": "view",
      "type": "function",
      "constant": true
    },
    {
      "inputs": [],
      "name": "clearInbox",
      "outputs": [],
      "stateMutability": "view",
      "type": "function",
      "constant": true
    },
    {
      "inputs": [],
      "name": "registerUser",
      "outputs": [],
      "stateMutability": "nonpayable",
      "type": "function"
    },
    {
      "inputs": [],
      "name": "getContractProperties",
      "outputs": [
        {
          "internalType": "address",
          "name": "",
          "type": "address"
        },
        {
          "internalType": "address[]",
          "name": "",
          "type": "address[]"
        }
      ],
      "stateMutability": "view",
      "type": "function",
      "constant": true
    },
    {
      "inputs": [
        {
          "internalType": "address",
          "name": "_receiver",
          "type": "address"
        },
        {
          "internalType": "bytes32",
          "name": "_content",
          "type": "bytes32"
        }
      ],
      "name": "sendMessage",
      "outputs": [],
      "stateMutability": "nonpayable",
      "type": "function"
    },
    {
      "inputs": [],
      "name": "receiveMessages",
      "outputs": [
        {
          "internalType": "bytes32[16]",
          "name": "",
          "type": "bytes32[16]"
        },
        {
          "internalType": "uint256[]",
          "name": "",
          "type": "uint256[]"
        },
        {
          "internalType": "address[]",
          "name": "",
          "type": "address[]"
        }
      ],
      "stateMutability": "view",
      "type": "function",
      "constant": true
    },
    {
      "inputs": [],
      "name": "getMyInboxSize",
      "outputs": [
        {
          "internalType": "uint256",
          "name": "",
          "type": "uint256"
        },
        {
          "internalType": "uint256",
          "name": "",
          "type": "uint256"
        }
      ],
      "stateMutability": "view",
      "type": "function",
      "constant": true
    }
  ],
  "bytecode": "0x608060405234801561001057600080fd5b50610e81806100206000396000f3fe608060405234801561001057600080fd5b50600436106100885760003560e01c80636e9a215e1161005b5780636e9a215e146100db578063a544f67f146100fa578063d842327e14610119578063ec7d3e641461012357610088565b8063056e7e391461008d5780634d3820eb146100975780636252194d146100a15780636df2ddd8146100bf575b600080fd5b610095610143565b005b61009f610188565b005b6100a96102dc565b6040516100b69190610992565b60405180910390f35b6100d960048036038101906100d49190610a46565b610330565b005b6100e3610577565b6040516100f1929190610b53565b60405180910390f35b610102610636565b604051610110929190610b9c565b60405180910390f35b6101216106c5565b005b61012b61070b565b60405161013a93929190610d2e565b60405180910390f35b60008060003373ffffffffffffffffffffffffffffffffffffffff1673ffffffffffffffffffffffffffffffffffffffff168152602001908152602001600020905050565b600160003373ffffffffffffffffffffffffffffffffffffffff1673ffffffffffffffffffffffffffffffffffffffff16815260200190815260200160002060009054906101000a900460ff166102da5760008060003373ffffffffffffffffffffffffffffffffffffffff1673ffffffffffffffffffffffffffffffffffffffff168152602001908152602001600020905060018060003373ffffffffffffffffffffffffffffffffffffffff1673ffffffffffffffffffffffffffffffffffffffff16815260200190815260200160002060006101000a81548160ff0219169083151502179055506005600101339080600181540180825580915050600190039060005260206000200160009091909190916101000a81548173ffffffffffffffffffffffffffffffffffffffff021916908373ffffffffffffffffffffffffffffffffffffffff160217905550505b565b6000600160003373ffffffffffffffffffffffffffffffffffffffff1673ffffffffffffffffffffffffffffffffffffffff16815260200190815260200160002060009054906101000a900460ff16905090565b8060026001018190555042600280018190555033600260000160006101000a81548173ffffffffffffffffffffffffffffffffffffffff021916908373ffffffffffffffffffffffffffffffffffffffff16021790555060008060003373ffffffffffffffffffffffffffffffffffffffff1673ffffffffffffffffffffffffffffffffffffffff16815260200190815260200160002090506002816002016000836000015481526020019081526020016000206000820160009054906101000a900473ffffffffffffffffffffffffffffffffffffffff168160000160006101000a81548173ffffffffffffffffffffffffffffffffffffffff021916908373ffffffffffffffffffffffffffffffffffffffff160217905550600182015481600101556002820154816002015590505080600001600081548092919061047790610da5565b919050555060008060008573ffffffffffffffffffffffffffffffffffffffff1673ffffffffffffffffffffffffffffffffffffffff16815260200190815260200160002090506002816003016000836001015481526020019081526020016000206000820160009054906101000a900473ffffffffffffffffffffffffffffffffffffffff168160000160006101000a81548173ffffffffffffffffffffffffffffffffffffffff021916908373ffffffffffffffffffffffffffffffffffffffff160217905550600182015481600101556002820154816002015590505080600101600081548092919061056c90610da5565b919050555050505050565b60006060600560000160009054906101000a900473ffffffffffffffffffffffffffffffffffffffff1660056001018080548060200260200160405190810160405280929190818152602001828054801561062757602002820191906000526020600020905b8160009054906101000a900473ffffffffffffffffffffffffffffffffffffffff1673ffffffffffffffffffffffffffffffffffffffff16815260200190600101908083116105dd575b50505050509050915091509091565b6000806000803373ffffffffffffffffffffffffffffffffffffffff1673ffffffffffffffffffffffffffffffffffffffff168152602001908152602001600020600001546000803373ffffffffffffffffffffffffffffffffffffffff1673ffffffffffffffffffffffffffffffffffffffff16815260200190815260200160002060010154915091509091565b33600560000160006101000a81548173ffffffffffffffffffffffffffffffffffffffff021916908373ffffffffffffffffffffffffffffffffffffffff160217905550565b610713610954565b60608060008060003373ffffffffffffffffffffffffffffffffffffffff1673ffffffffffffffffffffffffffffffffffffffff1681526020019081526020016000209050610760610954565b6000601067ffffffffffffffff81111561077d5761077c610ded565b5b6040519080825280602002602001820160405280156107ab5781602001602082028036833780820191505090505b5090506000601067ffffffffffffffff8111156107cb576107ca610ded565b5b6040519080825280602002602001820160405280156107f95781602001602082028036833780820191505090505b50905060005b600f8110156109415760008560030160008381526020019081526020016000206040518060600160405290816000820160009054906101000a900473ffffffffffffffffffffffffffffffffffffffff1673ffffffffffffffffffffffffffffffffffffffff1673ffffffffffffffffffffffffffffffffffffffff16815260200160018201548152602001600282015481525050905080602001518583601081106108ae576108ad610e1c565b5b60200201818152505080600001518483815181106108cf576108ce610e1c565b5b602002602001019073ffffffffffffffffffffffffffffffffffffffff16908173ffffffffffffffffffffffffffffffffffffffff1681525050806040015183838151811061092157610920610e1c565b5b60200260200101818152505050808061093990610da5565b9150506107ff565b5082818396509650965050505050909192565b604051806102000160405280601090602082028036833780820191505090505090565b60008115159050919050565b61098c81610977565b82525050565b60006020820190506109a76000830184610983565b92915050565b600080fd5b600073ffffffffffffffffffffffffffffffffffffffff82169050919050565b60006109dd826109b2565b9050919050565b6109ed816109d2565b81146109f857600080fd5b50565b600081359050610a0a816109e4565b92915050565b6000819050919050565b610a2381610a10565b8114610a2e57600080fd5b50565b600081359050610a4081610a1a565b92915050565b60008060408385031215610a5d57610a5c6109ad565b5b6000610a6b858286016109fb565b9250506020610a7c85828601610a31565b9150509250929050565b610a8f816109d2565b82525050565b600081519050919050565b600082825260208201905092915050565b6000819050602082019050919050565b610aca816109d2565b82525050565b6000610adc8383610ac1565b60208301905092915050565b6000602082019050919050565b6000610b0082610a95565b610b0a8185610aa0565b9350610b1583610ab1565b8060005b83811015610b46578151610b2d8882610ad0565b9750610b3883610ae8565b925050600181019050610b19565b5085935050505092915050565b6000604082019050610b686000830185610a86565b8181036020830152610b7a8184610af5565b90509392505050565b6000819050919050565b610b9681610b83565b82525050565b6000604082019050610bb16000830185610b8d565b610bbe6020830184610b8d565b9392505050565b600060109050919050565b600081905092915050565b6000819050919050565b610bee81610a10565b82525050565b6000610c008383610be5565b60208301905092915050565b6000602082019050919050565b610c2281610bc5565b610c2c8184610bd0565b9250610c3782610bdb565b8060005b83811015610c68578151610c4f8782610bf4565b9650610c5a83610c0c565b925050600181019050610c3b565b505050505050565b600081519050919050565b600082825260208201905092915050565b6000819050602082019050919050565b610ca581610b83565b82525050565b6000610cb78383610c9c565b60208301905092915050565b6000602082019050919050565b6000610cdb82610c70565b610ce58185610c7b565b9350610cf083610c8c565b8060005b83811015610d21578151610d088882610cab565b9750610d1383610cc3565b925050600181019050610cf4565b5085935050505092915050565b600061024082019050610d446000830186610c19565b818103610200830152610d578185610cd0565b9050818103610220830152610d6c8184610af5565b9050949350505050565b7f4e487b7100000000000000000000000000000000000000000000000000000000600052601160045260246000fd5b6000610db082610b83565b91507fffffffffffffffffffffffffffffffffffffffffffffffffffffffffffffffff8203610de257610de1610d76565b5b600182019050919050565b7f4e487b7100000000000000000000000000000000000000000000000000000000600052604160045260246000fd5b7f4e487b7100000000000000000000000000000000000000000000000000000000600052603260045260246000fdfea2646970667358221220d8d49a7ed8438ed9e6cae0936ef186a2cf0191718b9d9d1c8f08213edbd131ea64736f6c63430008100033",
  "immutableReferences": {},
  "source": "// SPDX-License-Identifier: MIT\r\npragma solidity  ^0.8.16;\r\n\r\ncontract Ethify{\r\n\r\n\r\n    struct Message{\r\n        address sender;\r\n        bytes32 content;\r\n        uint timestamp;\r\n    }\r\n\r\n    struct ContractProperties{\r\n        address EthifyOwner;\r\n        address[] registeredUserAdderss;\r\n    }\r\n\r\n    struct Inbox{\r\n        uint numSentMessages;\r\n        uint numReceivedMessages;\r\n        mapping(uint => Message) sentMessages;\r\n        mapping(uint => Message) receivedMessages;\r\n    }\r\n\r\n    mapping (address => Inbox) userInboxes;\r\n    mapping (address => bool) hasRegistered;\r\n\r\n    \r\n    Message newMessage;\r\n    \r\n    ContractProperties contractProperties;\r\n\r\n    function ethify() public{\r\n         \r\n         contractProperties.EthifyOwner = msg.sender;\r\n    }\r\n\r\n    function checkUserRegistration() public view returns(bool){\r\n        return hasRegistered[msg.sender];\r\n    }\r\n\r\n    function clearInbox() public view {\r\n        Inbox storage newInbox;\r\n        newInbox = userInboxes[msg.sender];\r\n    }\r\n\r\n    function registerUser() public {\r\n        if (!hasRegistered[msg.sender]){\r\n            Inbox storage newInbox;\r\n            newInbox = userInboxes[msg.sender];\r\n            hasRegistered[msg.sender] = true;\r\n            contractProperties.registeredUserAdderss.push(msg.sender);\r\n        }\r\n    }\r\n\r\n\r\n    function getContractProperties() public view returns(address, address[] memory){\r\n\r\n        return (contractProperties.EthifyOwner, contractProperties.registeredUserAdderss);\r\n    }\r\n\r\n    function sendMessage(address _receiver, bytes32 _content) public {\r\n        newMessage.content = _content;\r\n        newMessage.timestamp = block.timestamp;\r\n        newMessage.sender = msg.sender;\r\n        // Update senders inbox\r\n        Inbox storage sendersInbox = userInboxes[msg.sender];\r\n        sendersInbox.sentMessages[sendersInbox.numSentMessages] = newMessage;\r\n        sendersInbox.numSentMessages++;\r\n\r\n        // Update receivers inbox\r\n        Inbox storage receiversInbox = userInboxes[_receiver];\r\n        receiversInbox.receivedMessages[receiversInbox.numReceivedMessages] = newMessage;\r\n        receiversInbox.numReceivedMessages++;\r\n        return;\r\n    }\r\n    \r\n    function receiveMessages() public view returns (bytes32[16] memory, uint[] memory, address[] memory) {\r\n        Inbox storage receiversInbox = userInboxes[msg.sender];\r\n        bytes32[16] memory content;\r\n        address[] memory sender = new address[](16);\r\n        uint[] memory timestamp = new uint[](16);\r\n        for (uint m = 0; m < 15; m++) {\r\n            Message memory message = receiversInbox.receivedMessages[m];\r\n            content[m] = message.content;\r\n            sender[m] = message.sender;\r\n            timestamp[m] = message.timestamp;\r\n        }\r\n        return (content, timestamp, sender);\r\n    }\r\n\r\n    function getMyInboxSize() public view returns (uint, uint) {\r\n        return (userInboxes[msg.sender].numSentMessages, userInboxes[msg.sender].numReceivedMessages);\r\n    }\r\n\r\n}",
  "sourcePath": "C:\\Users\\dvipa\\OneDrive\\Desktop\\Dapp_Project\\contracts\\Ethify.sol",
  "compiler": {
    "name": "solc",
    "version": "0.8.16+commit.07a7930e.Emscripten.clang"
  },
  "schemaVersion": "3.4.9",
  "updatedAt": "2022-08-24T22:13:27.791Z",
  "networkType": "ethereum",
  "devdoc": {
    "kind": "dev",
    "methods": {},
    "version": 1
  },
  "userdoc": {
    "kind": "user",
    "methods": {},
    "version": 1
  }
}